:020000040800F2
:10000000B8FF0020E10100083D090008C50700080D
:1000100039090008A50500080D0E000800000000C1
:10002000000000000000000000000000490100087E
:1000300093060008000000008D0100087D0C0008F8
:10004000FB010008FB010008FB010008FB010008A0
:10005000FB010008FB010008FB010008FB01000890
:10006000FB010008FB010008FB010008FB01000880
:10007000FB010008FB010008FB010008A9050008BE
:10008000FB010008FB010008FB010008FB01000860
:10009000FB010008FB010008FB010008FB01000850
:1000A000FB010008FB010008FB010008FB01000840
:1000B000FB010008FB010008FB010008FB01000830
:1000C000FB010008FB010008FB010008FB01000820
:1000D000FB010008E50C0008FB010008FB0100081B
:1000E000FB010008FB010008FB010008FB01000800
:1000F000FB010008FB010008FB010008FB010008F0
:10010000FB010008FB010008FB010008FB010008DF
:10011000FB010008FB010008FB010008FB010008CF
:10012000FB010008FB010008FB010008FB010008BF
:10013000DFF810D000F08AF900480047CD1300081E
:10014000AFF30080B8FF0020224B19680868B0E8C0
:10015000F00F80F30988BFF36F8F4FF0000080F33A
:1001600011884EF00D0E7047000000000648006830
:10017000006880F3088862B661B6BFF34F8FBFF3A3
:100180006F8F00DF00BF00BF08ED00E0EFF30980D4
:10019000BFF36F8F0F4B1A6820E9F00F106008B59E
:1001A0004FF0500080F31188BFF34F8FBFF36F8F74
:1001B00001F014FE4FF0000080F31188BDE8084004
:1001C00019680868B0E8F00F80F30988BFF36F8FF3
:1001D000704700BF28000020EFF305807047000043
:1001E0000648804706480047FEE7FEE7FEE7FEE7D1
:1001F000FEE7FEE7FEE7FEE7FEE7FEE7850C000808
:1002000031010008D2B201E000F8012B491EFBD2F7
:1002100070470022F6E710B513460A460446194611
:10022000FFF7F0FF204610BDF0B480EA0102D40FC2
:100230004200B2EB410F02D20246084611464A0084
:1002400042D0C30DDDB2C1F3C752AD1A202D35DA4D
:10025000C1F3160141F4000204B15242C5F1200677
:1002600002FA06F12A411044B3EBD05F23D0C4B1A7
:10027000012DA0EBC35009DCF0BC4FF0004202EAB4
:10028000C352DBB200F5000000F0B2B8400000F14C
:10029000807000EBC350A0F1807040EAD17049003B
:1002A00009E0490841EAC071A0EBC35000F5000025
:1002B000400800EBC350F0BC00F091B8614201224D
:1002C00002EB4101001BF6E7F0BC704781F00041F2
:1002D000AAE780F00040A7E730B480EA010202F00C
:1002E000004530F0004221F0004013D090B1C30D22
:1002F000D40DC2F31601C0F31600E41A41F4000154
:1003000040F400027D34914201D3641C00E04900B6
:10031000002C02DA30BC002070474FF400000023AC
:10032000914201D3891A034340084FEA4101F7D1B2
:1003300051B1914202D14FF0004105E002D24FF09D
:10034000010101E06FF0010103EBC450284430BC0F
:1003500000F045B820F00040C10DC0F3160040F495
:1003600000007F2901DA00207047962903DCC1F1E3
:100370009601C84070479639884070472DE9F05F74
:100380000546002092469B46884606468146402404
:100390001BE0284641464746224600F078F853467F
:1003A0005A46C01A914110D311461846224600F011
:1003B0005FF82D1A67EB01084F4622460120002105
:1003C00000F056F817EB00094E41201EA4F101047D
:1003D000DFDC484631462A464346BDE8F09F002907
:1003E000A8BF7047401C490008BF20F001007047BB
:1003F00010B4B0FA80FC00FA0CF050EA010404BF1B
:1004000010BC704749B1CCF1200421FA04F411FA70
:100410000CF118BF012121430843A3EB0C01CB1DB4
:100420004FEA00614FEA102042BF002010BC704725
:1004300000EBC35010440029A4BF10BC7047401CFF
:10044000490008BF20F0010010BC7047064C074D62
:1004500006E0E06840F0010394E807009847103494
:10046000AC42F6D3FFF768FE602D0008802D00082F
:10047000202A04DB203A00FA02F100207047914064
:10048000C2F1200320FA03F3194390407047202A59
:1004900004DB203A21FA02F00021704721FA02F32E
:1004A000D040C2F120029140084319467047000035
:1004B0001CB5012401F074FB03220021012002F08D
:1004C000ABF9184908600846006818B116A000F09A
:1004D0009FFC01E000BFFEE71E48022100238022AE
:1004E000CDE900101CA11F4802F00CFA0446012CB3
:1004F00001D000BFFEE71C48032100238022CDE984
:1005000000101AA11D4802F0FDF90446012C01D08B
:1005100000BFFEE71A48006801F0B8FB01F052FB8B
:100520001CBD00001000002042696E6172795F7589
:100530006172745F53656D5F48616E646C652063C2
:100540007265617465207375636365737366756C3A
:10055000210A0000040000204C45445F5461736B85
:1005600000000000C9070008080000204D50335F5C
:10057000506C61795F5461736B00000005080008DE
:100580000000002010B54FF4407000F011FA00F0A8
:1005900001FF01F085FC4FF47A3001F075FA01F0AB
:1005A00023FA10BD00BFFEE710B500BF5021EFF3E6
:1005B000118081F31188BFF34F8FBFF36F8F00BF9E
:1005C00004464FF4003000F027F828B101F04EFA4D
:1005D0004FF4003000F006F800BF84F3118800BF2C
:1005E00010BD000000F0805111B10349086001E026
:1005F00002494860704700000404024000000240C5
:1006000021B1026842F00102026004E002684FF684
:10061000FE731A400260704701460020002201F07C
:10062000805313B1054B1A6801E0054B1A6802EAC2
:1006300001030BB1012000E00020704700040240DC
:10064000000002401AB103680B43036002E0036834
:100650008B430360704710B50022026847F6F073C1
:100660009A430C6A8B6823430C6923434C692343E8
:100670008C692343CC6923434C6A23438C6A23430C
:100680001A430260CB6843600B6883604B68C360A9
:1006900010BD70472DE9F0410246002500260020DC
:1006A00000230024002791F803C00CF00F0591F8F7
:1006B00003C00CF0100CBCF1000F03D091F802C085
:1006C0004CEA050591F800C0BCF1000F31D0146868
:1006D00000202BE04FF0010C0CFA00F3B1F800C041
:1006E0000CEA03069E4220D183004FF00F0C0CFA57
:1006F00003F7BC4305FA03FC4CEA040491F803C079
:10070000BCF1280F06D14FF0010C0CFA00FCC2F826
:1007100014C00AE091F803C0BCF1480F05D14FF0B6
:10072000010C0CFA00FCC2F810C0401C0828D1D300
:100730001460B1F800C0BCF1FF0F34DD5468002034
:100740002EE000F1080C4FF0010808FA0CF3B1F8A4
:1007500000C00CEA03069E4221D183004FF00F0C2B
:100760000CFA03F7BC4305FA03FC4CEA040491F8C5
:1007700003C0BCF1280F05D100F1080C08FA0CF8F1
:10078000C2F8148091F803C0BCF1480F07D100F102
:10079000080C4FF0010808FA0CF8C2F81080401C51
:1007A0000828CED35460BDE8F0810246002093684B
:1007B0000B400BB1012000E0002070474161704701
:1007C0000161704700BFFEE717E020210B48FFF7EB
:1007D000F7FF4FF42F7001F03FFA20210748FFF791
:1007E000EDFF20210648FFF7EBFF4FF42F7001F0DB
:1007F00033FA20210248FFF7E1FFE6E7000C014051
:100800000018014008B500BF002400BF00BF00BFB2
:1008100000BF002000904FF480512948FFF7C5FF2A
:10082000012802D127A000F0F3FA2BA000F0F0FA83
:1008300001F004FB044614B92DA000F0E9FA01F020
:1008400009FD32A000F0E4FA43F63F710B2001F0FD
:10085000A9FD0B2001F08CFB01213148FFF7D0FEF0
:100860000E21304880F8001429E02E4890F800044A
:10087000FF2819D100202C4908800BE02B492A4A77
:1008800012888818202101F083FC27480088203036
:100890002549088024480088B0F5544FEEDB0E202F
:1008A0002249214A12888854214801680068401C66
:1008B0001F4A10601F48814201D101F01FFFD4E799
:1008C00000140140767331303533206E6565642045
:1008D000696E6974210A00006861726477617265EB
:1008E00020696E69742073746172740A00000000DC
:1008F000686172647761726520696E6974207375CE
:10090000636365737366756C210A000073657474A4
:10091000696E6720766F6C756D65210A00000000B6
:1009200058000240B4D000201C000020B400002079
:1009300020000020BFCF6A0000BFFEE77047000024
:1009400070B5002100230F22C47804B3154C24682D
:1009500004F4E064C4F5E064210AC1F10403CA4070
:10096000447804FA03F184781440214309010E4CC1
:100970000678A155047804F01F050124AC400578E1
:100980006D11AD0005F1E025C5F8004109E00478DE
:1009900004F01F050124AC40044D0678761145F89B
:1009A000264070BD0CED00E000E400E080E100E0D6
:1009B00002490143024A1160704700000000FA0535
:1009C0000CED00E029B1064A52690243044B5A611A
:1009D00004E0034A52698243014B5A6170470000A8
:1009E0000010024029B1064AD2690243044BDA6181
:1009F00004E0034AD2698243014BDA617047000088
:100A00000010024029B1064A92690243044B9A61E0
:100A100004E0034A92698243014B9A6170470000E7
:100A20000010024030B500210022002400232D4D8B
:100A30006D6805F00C0121B1042905D0082923D1E6
:100A400005E0294D056022E0274D05601FE0254D9A
:100A50006D6805F47012234D6D6805F4803402252D
:100A600005EB92421CB9214D554305600BE01D4D2D
:100A70006D6805F400351DB11C4D5543056002E05D
:100A8000194D5543056002E0174D056000BF00BFDA
:100A9000144D6D6805F0F0010909154D6B5C056892
:100AA000DD4045600F4D6D6805F4E061090A104DA9
:100AB0006B5C4568DD4085600A4D6D6805F46051EA
:100AC000C90A0B4D6B5C4568DD40C560054D6D681E
:100AD00005F44041890B074D6B5CC568B5FBF3F528
:100AE000056130BD0010024000127A0000093D008F
:100AF0007C0000208C00002021B1028842F04002DE
:100B0000028004E002884FF6BF731A4002807047EB
:100B10000246002013890B400BB1012000E00020A9
:100B200070470146888970478181704710B500225F
:100B3000028802F441520B884C8823438C8823435B
:100B4000CC8823430C8923434C8923438C8923433A
:100B5000CC8923431A430280838B4FF2FF742340D6
:100B600083830B8A038210BD10B50446214602A080
:100B700000F04EF9002010BD535049206F76657289
:100B800074696D65216572726F72436F6465203D93
:100B90002025640010B500F001F810BD0CB5002050
:100BA000019000903348006840F48030314908607B
:100BB00000BF3048006800F4003000900198401CED
:100BC0000190009818B90198B0F5A06FF1D12948AB
:100BD000006800F4003010B10120009001E0002016
:100BE00000900098012843D12348006840F010008D
:100BF000214908600846006820F0030008600846A4
:100C0000006840F0020008601A48406819494860CE
:100C10000846406848600846406840F48060486084
:100C20000846406820F47C1048600846406840F45C
:100C3000E81048600846006840F08070086000BF17
:100C40000C48006800F000700028F9D0094840689E
:100C500020F00300074948600846406840F0020061
:100C6000486000BF0348406800F00C000828F9D134
:100C70000CBD0000001002400020024010B501F041
:100C8000B1FD10BD10B51348006840F001001149D6
:100C9000086008464068104908400E494860084608
:100CA00000680E4908400B4908600846006820F4B7
:100CB000802008600846406820F4FE0048604FF439
:100CC0001F008860FFF766FF4FF00060044908606E
:100CD00010BD0000001002400000FFF8FFFFF6FE0C
:100CE00008ED00E0704721B1828942F40052828110
:100CF00004E082894DF6FF731A40828170471AB171
:100D0000838A0B43838202E0838A8B43838270470A
:100D100002460020B1F5007F00D100BF13880B40D0
:100D20000BB1012000E00020704700002DE9F047E2
:100D300086B005460E460024A24600BFA146002705
:100D4000B08900B100BF2F462C8A4CF6FF700440DA
:100D5000F08804432C82AC894EF6F3100440B0882E
:100D600031890843718908430443AC81AC8A4FF64A
:100D7000FF400440B0890443AC8201A8FFF752FE53
:100D80001F48874202D1DDF810A001E0DDF80CA079
:100D9000A88900F4004040B10AEBCA0000EB0A1039
:100DA00031684900B0FBF1F807E00AEBCA0000EB3C
:100DB0000A1031688900B0FBF1F86420B8FBF0F04C
:100DC00004012009642101FB1089A88900F4004076
:100DD00040B1322000EBC900B0FBF1F000F0070099
:100DE000044308E0322000EB09106421B0FBF1F06D
:100DF00000F00F0004432C8106B0BDE8F08700002E
:100E000000380140C1F308028280704700BFFEE74E
:100E10000FB4054B10B503A9044A029800F018F866
:100E200010BC5DF814FB000071130008B000002036
:100E300002E008C8121F08C1002AFAD170477047A3
:100E4000002001E001C1121F002AFBD17047000001
:100E50002DE9FF4F8DB00F460546002606E02528F8
:100E60000BD0DDE90F1290476D1C761C2878002806
:100E7000F5D111B03046BDE8F08F0024A246A1465E
:100E80000122E94900E0044315F8013F203B02FA42
:100E900003F00842F7D128782A2810D06FF02F02EB
:100EA0002878A0F13001092914D80AEB8A0102EB55
:100EB000410144F0020400EB010A6D1CF0E701CF90
:100EC0005FEA000A03D544F40054CAF1000A44F072
:100ED00002046D1C28782E2817D115F8010F44F054
:100EE00004042A280ED06FF02F022878A0F13001D8
:100EF00009290AD809EB890102EB410100EB01093C
:100F00006D1CF2E757F8049B6D1C28786C280FD0F5
:100F100006DC4C2817D068280DD06A2814D104E0CC
:100F2000742810D07A280FD10DE044F400140AE0A0
:100F300044F4801401E044F440146978814202D101
:100F400004F580146D1C6D1C28786E281ED00CDCF6
:100F5000632830D004DC00288BD0582811D19FE0C2
:100F6000642867D069280CD164E073282DD004DC94
:100F70006F2872D0702804D194E075286ED078283C
:100F80006DD0DDE90F129047761C4BE1C4F302509F
:100F9000022806D0032809D0042801CF09D0066012
:100FA00040E101CFF117C0E900613BE101CF0680CC
:100FB00038E1067036E117F8040B8DF800000020C8
:100FC0008DF80100EB46012003E057F804BB4FF019
:100FD000FF3061074FF0000102D40DE008F101017C
:100FE000884649450FDA8045F8DB1BF808100029D0
:100FF000F4D108E008F1010188468142FADB1BF8D0
:1010000008100029F6D1DDE90F23AAEB080081467C
:10101000214600F031F9304400EB080604E0DDE938
:101020000F121BF8010B9047B8F10108F7D22146C7
:101030004846F2E00A21C4F302524FF0000B089137
:10104000022A04D001CFC117032A09D00AE0FF1DEC
:1010500027F00707F7E8020108E02CE01EE01FE098
:1010600000B2C117042A01D140B2C117021E71F1AA
:10107000000206DA0023D0EB030063EB01012D220E
:1010800002E0220504D52B228DF82420012203E062
:10109000E20701D02022F7E7904653E00A210BE057
:1010A000102109E010214FF0000B44F004044FF030
:1010B0000809089103E008214FF0000B0891C4F3E0
:1010C0000252022A04D001CF0021032A06D006E0F2
:1010D000FF1D27F00707F7E8020103E080B2042AAA
:1010E00000D1C0B24FF0000822072BD52A78702A11
:1010F00007D0DDF820C08CF0100C5CEA0B0C05D09A
:101100000EE040228DF82420012208E050EA01037D
:1011100006D030238DF824308DF825200222904609
:10112000089B83F0080353EA0B030BD150EA01023A
:1011300001D1620706D530228DF824204FF0010836
:10114000A9F101092A78582A04D038A20B9208AADA
:101150000A920BE03AA2F9E75B46089AFFF70EF90C
:101160000B9B9B5C0A9A521E0A92137050EA010272
:10117000F2D10A98ADEB000000F1200B600702D518
:1011800024F4803401E04FF00109D94502DDA9EBD8
:101190000B0000E0002000EB0B0141440890AAEB9B
:1011A000010AE00306D4DDE90F232146504600F092
:1011B00063F806444FF0000908E009A911F8090096
:1011C000DDE90F12904709F10109761CC145F4DBF6
:1011D000E0030CD5DDE90F232146504600F04CF822
:1011E000064404E0DDE90F1230209047761C089990
:1011F000481E08900029F5DC08E00A980A99007852
:10120000491C0A91DDE90F129047761CBBF10001E1
:10121000ABF1010BF1DC21465046DDE90F2300F074
:1012200019F806446D1C21E60928010030313233DB
:101230003435363738396162636465660000000012
:1012400030313233343536373839414243444546FC
:10125000000000002DE9F041044600251E46174617
:10126000880404D405E039462020B0476D1C641E74
:10127000F9D52846BDE8F0812DE9F0410446002566
:101280001E469046C80301D5302700E02027880479
:1012900004D505E041463846B0476D1C641EF9D5BB
:1012A0002846BDE8F08100002DE9F04104460D46D6
:1012B0000026002700BF4DE000BF4FF480512948B1
:1012C000FFF773FA0028F8D04FF4805026490860E1
:1012D0000BE025490868411E234A116028B9002007
:1012E000FFF742FCC0B2BDE8F08180211F48FFF744
:1012F0000FFC0128EDD04FF400611A48FFF75EFAA9
:1013000003E021461948FFF70FFC3846791CCFB29D
:101310002028F6DB00274FF48050134908600AE0CC
:1013200011490868411E104A116020B90120FFF7D9
:101330001BFCC0B2D7E701210C48FFF7E9FB0028EE
:10134000EED00A48FFF7EDFB80464FF400610548F8
:10135000FFF736FA3046711C8EB2A842ACDB002093
:10136000C1E70000001401402400002000380040C4
:1013700070B504460D46E1B20548FFF743FD00BFD6
:1013800080210348FFF7C4FC0028F9D0204670BD37
:101390000038014008B501214820FFF733FB202029
:1013A000ADF8000001208DF8020010208DF8030038
:1013B00069460448FFF76EF969460348FFF76AF982
:1013C00008BD0000000C0140001801401CB50124BC
:1013D000FFF7D8F80948032100238022CDE9001047
:1013E00007A10B4801F08EFA0446012C01D000BF82
:1013F000FEE700F0B5FC00201CBD0000000000204E
:101400004170705461736B437265617465000000D4
:10141000B10400082DE9F04105460E46264807684C
:1014200026480068001D00F071FB50B92348006891
:1014300090F82C10012088402149096881432048F8
:101440000160681CD8B9D6B11E4948681B490968B3
:1014500088601A4982680968CA6018490968091DC4
:101460008268516015490968091D8160154A134950
:1014700009684A6111460968491C11601AE07C1923
:101480000E4800684460BC4207D20C480168091D40
:101490000D48006800F05EFB0CE008480168091D7B
:1014A0000A48006800F056FB09480068844201D2EF
:1014B00007480460BDE8F0813C00002028000020BF
:1014C00040000020A4D70020300000202C00002085
:1014D0005800002010B5044600F062FB2F48006859
:1014E000401C2E4908602E48006840B92C48046012
:1014F0000846006801280DD100F028F90AE02948C3
:10150000006838B926480068C06AE16A884201D894
:101510002348046024480068401C2349086094F86C
:101520002C10012088402149096808431F490860A0
:10153000E16A01EB81011E4A02EB81014868A0606B
:101540008268E260211D826851608160E16A01EB7E
:101550008101174A02EB81026261E16A01EB8101BC
:10156000134A52F82110491CE26A02EB8202104B26
:1015700043F8221000F026FB0A48006868B10848CA
:101580000068C06AE16A884207D24FF0805009497A
:101590000860BFF34F8FBFF36F8F10BD380000207E
:1015A00028000020440000205400002040000020BB
:1015B000D4D4002004ED00E010B516E000F0F0FAFD
:1015C0000C48C068C468201D00F0A0FA0A480068F2
:1015D000401E0949086009480068401E0749086024
:1015E00000F0F0FA204600F00BF8044800680028EC
:1015F000E4D110BD90D70020380000203400002036
:1016000010B50446206B00F0EDFA204600F0EAFA2F
:1016100010BD000030B54FF4C053154800F007046A
:101620002CB1C01D20F00700114C041B1B1B0246EF
:10163000104C226000240F4D6C60D018083820F048
:1016400007000D4C206000240B4D2D686C600A4D86
:101650002D682C601146441A4C60074C24680C60BD
:10166000064D4C682C60064D4C682C6030BD000067
:10167000B8D70020940000209C000020A400002087
:10168000A000002000BFFFF797FF06480068012870
:10169000F9D94FF0805004490860BFF34F8FBFF372
:1016A0006F8FF0E7D4D4002004ED00E02DE9F04185
:1016B00006460D4617469846069C0DB9246000E084
:1016C0002760E66325640121204601F0CBF8BDE8E0
:1016D000F0812DE9FF5F80460E469146DDE90E7AE6
:1016E000109CA9F10100216B01EB800B2BF0070B83
:1016F0007EB1002507E0715D04F134004155705D55
:1017000000B902E06D1C102DF5D300BF002143206D
:101710000155202F00D31F27E762201D00F017FA84
:1017200004F1180000F013FA2461C7F12000A06151
:10173000646241465846039A00F006F92060BAF107
:10174000000F01D0CAF80040BDE8FF9F10B500248B
:1017500007E004EB84010F4A02EB810000F0EAF994
:10176000641C202CF5D30C4800F0E4F90B4800F081
:10177000E1F90B4800F0DEF90A4800F0DBF90A480D
:1017800000F0D8F90448094908600448084908608D
:1017900010BD0000D4D4002054D7002068D700200A
:1017A0007CD7002090D70020A4D700202C00002058
:1017B0003000002010B50146164800E000680368BC
:1017C0008B42FBD30246436813448B4204D14368E7
:1017D0004C682344436001460A464B68134404683E
:1017E000A34211D10C4C03682468A34208D04B6873
:1017F0000468646823444B6003681B680B6005E061
:10180000054B1B680B6001E003680B60884200D049
:10181000016010BD940000209C0000200948006871
:10182000006808B9012000E0002020B14FF0FF302F
:101830000549086005E003480068C068006802497F
:10184000086070472C0000205800002000BF502086
:1018500080F31188BFF34F8FBFF36F8F00BF00BFBE
:10186000FEE700002DE9F04705464FF0000900F0C3
:10187000ADFA3048006808B9FFF7CCFE75B105F045
:101880000700C0F11008C8F1FF30A84201D20120C2
:1018900000E0002008B9454400E00025012000EBED
:1018A000E570002841D0002D3FD0234800688542D4
:1018B0003BD8224E3046046801E026462468606822
:1018C000A84202D220680028F7D11A480068844252
:1018D0002BD0306800F10809206830606068401B38
:1018E000102807D967196068401B78606560384622
:1018F000FFF760FF104960680968081A0E49086020
:10190000084600680E490968884203D20A48006800
:101910000B490860606840F0004060600020206073
:1019200008480068401C0749086001F06BF9484608
:10193000BDE8F0879C000020A0000020940000205B
:10194000A4000020A8000020001F4FF08073036057
:10195000001F21F001030360001F034B03601438D4
:1019600002602038704700004D18000800B587B0AD
:1019700001210820FFF746F801218803FFF732F81C
:101980004FF46040ADF8180018208DF81B000320BC
:101990008DF81A0006A91248FEF77CFE0020ADF86B
:1019A00004004FF48270ADF806000020ADF8080086
:1019B000ADF80A00ADF80C004FF40070ADF80E0061
:1019C0002020ADF810000020ADF8120001A9054854
:1019D000FFF7ACF801210348FFF78EF807B000BD10
:1019E000000C01400038004000B58DB001210846D0
:1019F000FEF7E8FF1A4802901A480390002004906E
:101A00004FF454400590002006908020079000205D
:101A10000890099020200A904FF440500B9000202D
:101A20000C9002A91048FEF716FE0F208DF8040056
:101A300006208DF8050000208DF8060001208DF8A5
:101A4000070001A8FEF77CFF4FF40030FEF7CAFD47
:101A5000012202210448FEF7F5FD0DB000BD000093
:101A600004380140B4000020580002400120002149
:101A7000034A1160FF22034981F8002470470000E7
:101A800020000020B4D0002010B586B0044601210B
:101A900044F20400FEF7B6FF4FF40070ADF81400F6
:101AA00003208DF8160018208DF8170005A9154899
:101AB000FEF7F0FD4FF48060ADF8140004208DF8BF
:101AC000170005A90F48FEF7E5FD01940020ADF8C9
:101AD0000800ADF80A00ADF80C00ADF810000C20BD
:101AE000ADF80E0001A90848FFF720F901224021B6
:101AF0000548FFF704F901210348FFF7F4F806B0A1
:101B000010BD0000000801400038014001460A698C
:101B1000D1E901309860D1E90103586050688842EA
:101B200001D188685060002008611068401E106074
:101B30001068704700F1080141604FF0FF3181608B
:101B400000F10801C16001610021016070470021BE
:101B50000161704710B502460B685C1C0CB9106936
:101B600007E002F1080000E04068446824689C42F5
:101B7000FAD944684C604C68A160886041600A6191
:101B80001468641C146010BD42684A6093688B60DE
:101B9000936859609160086103685B1C036070473B
:101BA00000BF502080F31188BFF34F8FBFF36F8FBA
:101BB00000BF03480068401C0149086070470000EE
:101BC0009000002006480068401E0549086008464D
:101BD000006820B9002080F3118800BF00BF704763
:101BE0009000002070B506463546E6B1083D2C460B
:101BF0006068C00FB8B12068A8B9606820F00040E4
:101C0000606000F0E3F80849606809680844064924
:101C100008602046FFF7CEFD04480068401C0349D9
:101C2000086000F0EFFF70BDA0000020AC000020B5
:101C300000204FF0E02108618861064800684FF4F9
:101C40007A71B0FBF1F0401E4FF0E02148610720AF
:101C5000086170476800002070B50446002544B153
:101C600000F0B4F800212046FFF7D4FB00F0CAFFD3
:101C700005463DB94FF0805003490860BFF34F8FD0
:101C8000BFF36F8F70BD000004ED00E070B5054636
:101C9000FFF786FF15B92948006800E0284604468A
:101CA000201DFFF733FF78B9E06A00EB800024497C
:101CB00051F8200040B994F82C10012088402149A7
:101CC000096881431F480160A06A18B104F1180037
:101CD000FFF71CFF1C480068401C1B4908601748A0
:101CE0000068844209D1211D1848FFF74DFF1848AC
:101CF0000068401C1649086006E016480068401E4F
:101D000014490860FFF78AFDFFF75CFF0B48006885
:101D1000844202D02046FFF773FC0F48006858B198
:101D200006480068844207D14FF080500B49086094
:101D3000BFF34F8FBFF36F8F70BD000028000020EE
:101D4000D4D40020400000205400002090D7002070
:101D500034000020380000204400002004ED00E0A2
:101D60001CB5124800210B468022CDE9001010A1BD
:101D7000114800F0C7FD0446012C14D100BF5020CB
:101D800080F31188BFF34F8FBFF36F8F00BF4FF009
:101D9000FF300A490860012009490860002009490C
:101DA000086000F005FD084800681CBD5C000020CC
:101DB00049444C45000000008516000858000020EA
:101DC000440000203C000020600000200248006821
:101DD000401C0149086070476400002012480068F8
:101DE00018B10120114908601DE000200F4908606A
:101DF0000F480068B0FA80F0C0F11F0101EB8102CA
:101E00000C4B03EB820042685268426000F108020A
:101E10004368934202D14268526842604268D26885
:101E2000054B1A6000BF7047640000204C00002082
:101E300040000020D4D400202800002010B5002449
:101E40004FF400511448FEF7B9FC1420FFF704FFCB
:101E50004FF400611048FEF7B3FC4FF480510F4877
:101E6000FEF7AEFC4FF400510B48FEF7A9FC04E06E
:101E70000A20FFF7F1FE601CC4B24FF480510648FF
:101E8000FEF793FC08B90A2CF2DB0A2C01D10120E1
:101E900010BD0020FCE7000000140140000C0140D0
:101EA00008B501212820FEF7ADFD4FF48050ADF8B4
:101EB000000010208DF8030003208DF80200694611
:101EC0002948FEF7E7FB4FF480512748FEF778FCDE
:101ED0004FF40060ADF8000069462448FEF7DAFBD5
:101EE0004FF400612148FEF76BFC4FF40050ADF851
:101EF000000069461D48FEF7CDFB4FF40050ADF8D9
:101F0000000069461848FEF7C5FB4FF40040ADF8E5
:101F1000000069461448FEF7BDFB4FF48040ADF861
:101F2000000004208DF8030069460F48FEF7B2FB5D
:101F30004FF48050ADF8000004208DF8030069468E
:101F40000A48FEF7A7FB4FF480510748FEF738FC1C
:101F50004FF400610548FEF733FC4FF4005103488D
:101F6000FEF72EFC08BD0000000C014000140140EB
:101F7000F8B505460026002000904FF480506849CF
:101F8000086045F44074294666A0FEF741FF200A28
:101F90008DF80000E0B28DF8010004E00A20FFF7A0
:101FA0005BFE701CC6B24FF480516648FEF7FDFB25
:101FB00008B90A2EF2DB0A2E08D106E062A0FEF76D
:101FC00027FF4FF47A70FFF747FEF7E709E054491F
:101FD0000868411E524A116018B90020FEF7C4FD7E
:101FE000F8BD80215F48FEF793FD0128EFD04FF444
:101FF00000615448FEF7E4FB4FF480515A48FEF765
:10200000DDFB9DF800105748FEF78EFD4FF4805021
:102010004349086009E042490868411E404A11608E
:1020200018B90120FEF7A0FDDAE701214D48FEF7BF
:102030006FFD0028EFD04B48FEF773FD04469DF876
:1020400001104848FEF770FD4FF480503449086095
:1020500009E033490868411E314A116018B901206E
:10206000FEF782FDBCE701213E48FEF751FD002846
:10207000EFD03C48FEF755FD044600213948FEF7F5
:1020800053FD4FF480502649086009E02449086850
:10209000411E234A116018B90120FEF765FD9FE734
:1020A00001213048FEF734FD0028EFD02D48FEF71F
:1020B00038FDC0B28DF8000000212A48FEF734FD3B
:1020C0004FF480501649086009E015490868411E20
:1020D000134A116018B90120FEF746FD80E701217F
:1020E0002048FEF715FD0028EFD01E48FEF719FD29
:1020F000C0B28DF801009DF801009DF8001040EA83
:1021000001244FF480511848FEF75AFB214617A0CE
:10211000FEF77EFE0320FFF79FFD204660E70000EC
:10212000240000205B52656164696E672052656718
:10213000312F325D416464723A2030782530347832
:102140000A00000000140140726561642072656736
:10215000206661696C210A44524551206572726F94
:1021600072210A0000380040000C01405B5265619A
:1021700064696E6720526567322F325D72656365F0
:10218000697665643A203078253034780A0000009A
:102190002DE9F04105460E460027002404E0062004
:1021A000FFF75AFD601CC4B24FF480512148FEF77E
:1021B000FCFA08B90A2CF2DB142C08D11EA0FEF799
:1021C00027FE03E04FF47A70FFF746FDFAE74FF47D
:1021D00000611848FEF7F2FA1C48B0F800801FE0D2
:1021E0003846791C8FB2285C184908808814184931
:1021F00008600BE016490868411E154A116028B9AD
:102200000120FEF7B1FCC0B2BDE8F08101210F480A
:102210000C38FEF77DFC0028ECD00C48B0F80080AC
:10222000B742DDDB4FF400610248FEF7C9FA002037
:10223000EAE70000001401403130353320535049A3
:10224000204552524F52210A000000000C38004035
:1022500024000020F8B500240025002604E00A2010
:10226000FFF7FAFC601CC4B24FF480512A48FEF715
:102270009CFA08B90A2CF2DB0A2C01D100BFFEE758
:1022800026A0FEF7C5FD00BFFFF770FB40F6040176
:10229000002000F087F80020FFF76AFE0546B5F53C
:1022A000006FF1D123A0FEF7B3FD002500BF28A0E9
:1022B000FEF7AEFD002404E00A20FFF7CDFC601C11
:1022C000C4B24FF480511448FEF76FFA08B90A2CD3
:1022D000F2DB0A2C01D100BFFEE74FF418410320C6
:1022E00000F060F80320FFF743FE05464FF49670B8
:1022F000FFF7B2FCB5F5184FD9D11BA0FEF788FD4A
:102300006946214800F066F9BDF8000000F0D4F9F4
:102310001EA0FEF77DFDF8BD00140140736F6674CA
:102320007761726520696E69742073746172740AD2
:1023300000000000736F66747761726520696E69D2
:1023400074207375636365737366756C210A00008E
:1023500073657474696E6720636C6B206D756C7443
:1023600069706C790A000000636C6B206D756C7489
:1023700069706C792073657420737563636573731A
:1023800066756C210A0000000024F44A767331302F
:10239000353320616C6C206973207265616479212A
:1023A000210A0000F8B505460C46002600200090E2
:1023B0004FF480507049086045F400772246294662
:1023C0006EA0FEF725FD380A8DF80000F8B28DF8F2
:1023D000010004E00A20FFF73FFC701CC6B24FF476
:1023E00080517148FEF7E1F908B90A2EF2DB0A2E96
:1023F00004D16EA0FEF70CFDFF20F8BD4FF4006184
:102400006948FEF7DDF94FF480517048FEF7D6F9C0
:102410000AE059490868411E574A116020B9002056
:10242000FEF7A2FBC0B2E8E780216948FEF770FB27
:102430000128EED09DF800106548FEF775FB4FF4BB
:1024400080504D4908600AE04B490868411E4A4ADD
:10245000116020B90120FEF787FBC0B2CDE7012152
:102460005B48FEF755FB0028EED05948FEF759FBB4
:1024700007469DF801105648FEF756FB4FF4805072
:102480003D4908600AE03C490868411E3A4A11602B
:1024900020B90120FEF768FBC0B2AEE701214C482D
:1024A000FEF736FB0028EED04948FEF73AFB074618
:1024B000200A8DF80000E0B28DF801004FF4805042
:1024C0002D4908600AE02C490868411E2A4A11601B
:1024D00020B90020FEF748FBC0B28EE780213C48BF
:1024E000FEF716FB0128EED09DF800103848FEF7E5
:1024F0001BFB4FF48050204908600AE01E49086821
:10250000411E1D4A116020B90120FEF72DFBC0B20B
:1025100073E701212E48FEF7FBFA0028EED02C4885
:10252000FEF7FFFA07469DF801102948FEF7FCFA6E
:102530004FF48050104908600AE00F490868411EB6
:102540000D4A116020B90120FEF70EFBC0B254E71E
:1025500001211F48FEF7DCFA0028EED01C48FEF7E8
:10256000E0FA07464FF480511848FEF729F9032096
:10257000FFF772FB002040E7240000205B577269E0
:1025800074696E67205265675D416464723A2030F9
:1025900078253034782C20446174613A20307825D5
:1025A0003034780A0000000000140140777269742A
:1025B0006520636D64206661696C65640A445245F8
:1025C00051206572726F72210A000000000C0140F8
:1025D000003800402DE9F04105460C4606492846E2
:1025E000FDF774FE07460549FDF776FE0646FDF742
:1025F000B1FE2080BDE8F0810024F44A00007A4555
:102600002DE9F04104460D460026002746E000BFB4
:102610004FF480512548FEF7C8F80028F8D04FF451
:102620008050234908600BE021490868411E204A78
:10263000116028B90020FEF797FAC0B2BDE8F0811A
:1026400080211C48FEF764FA0128EDD04FF40061A8
:102650001648FEF7B3F8A15D1648FEF765FA4FF489
:102660008050134908600AE011490868411E104A69
:10267000116020B90120FEF777FAC0B2DEE7012130
:102680000C48FEF745FA0028EED00A48FEF749FA52
:1026900080464FF400610548FEF792F83046711C01
:1026A0008EB2A842B3DB0020C8E70000001401404E
:1026B000240000200038004070B50446B4F5806F57
:1026C00004DB08A0FEF7A4FB00BFFEE70320FFF732
:1026D0004FFC05466FF30905254329460320FFF704
:1026E00061FE70BD767331303533623A20636C6BB6
:1026F000203E2030783346462E0A000030B589B09F
:10270000002400250020FFF733FC044644F00804B1
:1027100021460020FFF746FE00BF0DE0012100200A
:10272000FEF7C2FD0020FFF723FC044604F008007A
:1027300000B903E0681C85B2402DEFDB00BF002527
:1027400013E041F606610720FFF72CFE0620FFF795
:102750000FFC0446E2B2202101A8FDF753FD202121
:1027600001A8FFF74DFF681C85B2412DE9DB082069
:10277000FFF7FEFB044614B106A0FEF749FB092053
:10278000FFF7F6FB044614B102A0FEF741FB09B0C7
:1027900030BD00006461743020616E642064617437
:1027A000312061726120696E76616C69642E0A0065
:1027B00010B50A48006840F47000084908600846EF
:1027C000006840F070400860FFF732FA00200449CA
:1027D0000860FDF7CBFC002010BD000020ED00E0FC
:1027E0009000002010B500BF502080F31188BFF387
:1027F0004F8FBFF36F8F00BF00F0B8F818B14FF0E4
:1028000080500449086000BF002080F3118800BF99
:1028100010BD000004ED00E02DE9F84304460E462B
:1028200017460025DCB1681EB0FBF4F0B04216D3A9
:1028300004FB06F010F1490F11D804FB06F909F169
:102840004800FFF70FF805464DB1A84608F14808C3
:102850003B464246314620460095FEF727FF284674
:10286000BDE8F8832DE9F04105460E4601272C46C8
:10287000002C41D0E06B00283ED0B91EE06BB1FBCC
:10288000F0F0216C884237D3FFF78AF9D4E90F12B0
:10289000206801FB0200A0600020A0632068606047
:1028A000E06B401E226C216800FB0211E160FF20FA
:1028B00084F8440084F845009EB9206908B90120D5
:1028C00000E00020A8B904F1100000F017F980B171
:1028D0004FF080500A490860BFF34F8FBFF36F8FEE
:1028E00007E004F11000FFF725F904F12400FFF7D9
:1028F00021F9FFF767F900E000273846BDE8F081CD
:1029000004ED00E02DE9FF4F85B08046894617466B
:10291000DDE912ABB800FEF7A5FF064676B14C2004
:10292000FEF7A0FF04462CB14C212046FDF771FCB8
:10293000266304E03046FFF755F900E000247CB13F
:102940000020CDE900ABCDE902403A464946404679
:10295000089BFEF7BEFE2046FEF7BCFD012501E008
:102960004FF0FF35284609B0BDE8F08F2DE9F04162
:1029700000275748006800287ED156480068451C4B
:10298000544805608DB95448D0F800805348006819
:10299000514908605148C0F8008051480068401C07
:1029A0004F490860FEF73AFF00BF4E480068854275
:1029B00076D300BF48480068006808B9012000E0ED
:1029C000002020B14FF0FF304649086067E04248E0
:1029D0000068C068C4686668B54202D241480660B3
:1029E0005DE06069D4E902128A60D4E902214A609C
:1029F000211D42688A4201D1E16841600022626182
:102A00000168491E0160A06A98B1A06AD4E9071262
:102A10008A60D4E907214A6004F1180142688A42B9
:102A200001D1216A41600022A2620168491E016051
:102A300000BF94F82C10012088402B4909680843F6
:102A400029490860E16A01EB8101284A02EB810112
:102A50004868A0608268E260211D826851608160E0
:102A6000E16A01EB8101214A02EB81026261E16AC4
:102A700001EB81011D4A00E022E052F82110491CBF
:102A8000E26A02EB8202194B43F822101849E06A0D
:102A90000968C96A88428DD901278BE700E000BF29
:102AA00013480068C06A00EB8000104951F820000C
:102AB000012800D901270F48006800B1012704E070
:102AC0000D480068401C0C4908603846BDE8F0819C
:102AD000640000203C0000202C000020300000207A
:102AE000500000205800002040000020D4D40020D6
:102AF000280000204C0000204800002070B503464C
:102B0000D868C168886AD1E90745A560D1E907544A
:102B1000656001F118044568A54201D10C6A446062
:102B200000258D620468641E046030480068002837
:102B30003DD14869D1E90245A560D1E902546560FB
:102B40000C1D4568A54201D1CC68446000254D614B
:102B50000468641E046091F82C400120A040244CBD
:102B600024682043224C2060CC6A04EB8404214D6D
:102B700005EB8404606888608568CD600C1D8568FD
:102B80006C608460CC6A04EB84041A4D05EB840508
:102B90004D61CC6A04EB8404164D55F82440641C46
:102BA000CD6A05EB8505134E46F8254010E0124C22
:102BB0006068C86185680D6201F1180485686C6001
:102BC00084600D4D8D622C462468641C2C6000BF0F
:102BD0000A4CC86A2468E46AA04204D90122012090
:102BE000074C206000E00022104670BD6400002009
:102BF00040000020D4D400207CD7002028000020F2
:102C00004C00002070B500240026FEF7C9FF4B4899
:102C10000068401E494908600846006800287DD1C8
:102C200047480068002879D05BE04648C068C4681F
:102C3000A06AD4E907128A60D4E907214A6004F146
:102C4000180142688A4201D1216A41600022A262D1
:102C50000168491E01606069D4E902128A60D4E902
:102C600002214A60211D42688A4201D1E168416027
:102C7000002262610168491E016094F82C10012055
:102C800088403149096808432F490860E16A01EB2F
:102C900081012E4A02EB81014868A0608268E260EF
:102CA000211D826851608160E16A01EB8101274A40
:102CB00002EB81026261E16A01EB8101234A52F871
:102CC0002110491CE26A02EB8202204B43F82210D9
:102CD0001F49E06A0968C96A884202D301201D4978
:102CE00008601848006808B9012000E000200028AA
:102CF0009BD00CB1FEF792FD1748056865B100BF87
:102D0000FFF734FE10B10120124908606D1E002D3E
:102D1000F6D10020104908600E4800E009E0006884
:102D200038B1012630070D490860BFF34F8FBFF35C
:102D30006F8FFEF747FF304670BD00006400002033
:102D4000380000207CD7002040000020D4D4002090
:102D5000280000204C0000204800002004ED00E086
:102D6000802D000800000020B4000000300E000894
:102D7000342E0008B400002004FF0000400E0008BC
:102D80000000000000000000000000000000000043
:102D90000000000000000000000000000000000033
:102DA0000000000000A00000000000000000000083
:102DB0000000000000000000000000000000000013
:102DC0000000000000000000000000000000000003
:102DD00000000000000000000000000000000000F3
:102DE0001F0000000000000000A24A0400000000D4
:102DF00000000000010203040607080900000000AB
:102E0000010203040102030406070809020406087C
:102E1000AAAAAAAA0000000000000000000000000A
:102E200000000000000000000000000000000000A2
:042E3000000000009E
:0400000508000131BD
:00000001FF
